{
  "contractName": "FirRecord",
  "abi": [
    {
      "anonymous": false,
      "inputs": [
        {
          "indexed": false,
          "internalType": "uint256",
          "name": "fir_id",
          "type": "uint256"
        }
      ],
      "name": "FirCreated",
      "type": "event"
    },
    {
      "inputs": [],
      "name": "firCount",
      "outputs": [
        {
          "internalType": "uint256",
          "name": "",
          "type": "uint256"
        }
      ],
      "stateMutability": "view",
      "type": "function"
    },
    {
      "inputs": [
        {
          "internalType": "uint256",
          "name": "",
          "type": "uint256"
        }
      ],
      "name": "firRecords",
      "outputs": [
        {
          "internalType": "string",
          "name": "offence",
          "type": "string"
        },
        {
          "internalType": "uint256",
          "name": "offence_date",
          "type": "uint256"
        },
        {
          "internalType": "string",
          "name": "police_station",
          "type": "string"
        },
        {
          "internalType": "string",
          "name": "status",
          "type": "string"
        },
        {
          "internalType": "string",
          "name": "description",
          "type": "string"
        },
        {
          "internalType": "uint256",
          "name": "created_at",
          "type": "uint256"
        },
        {
          "internalType": "uint256",
          "name": "updated_at",
          "type": "uint256"
        }
      ],
      "stateMutability": "view",
      "type": "function"
    },
    {
      "inputs": [
        {
          "internalType": "string",
          "name": "_offence",
          "type": "string"
        },
        {
          "internalType": "uint256",
          "name": "_offence_date",
          "type": "uint256"
        },
        {
          "internalType": "string",
          "name": "_police_station",
          "type": "string"
        },
        {
          "internalType": "string",
          "name": "_status",
          "type": "string"
        },
        {
          "internalType": "string",
          "name": "_description",
          "type": "string"
        }
      ],
      "name": "createFirRecord",
      "outputs": [],
      "stateMutability": "nonpayable",
      "type": "function"
    },
    {
      "inputs": [
        {
          "internalType": "uint256",
          "name": "_fir_id",
          "type": "uint256"
        },
        {
          "internalType": "string",
          "name": "_status",
          "type": "string"
        }
      ],
      "name": "updateFirStatus",
      "outputs": [],
      "stateMutability": "nonpayable",
      "type": "function"
    }
  ],
  "bytecode": "0x608060405234801561001057600080fd5b50610d07806100206000396000f3fe608060405234801561001057600080fd5b506004361061004c5760003560e01c80632d0451e814610051578063d1c45a921461006d578063f4cb2c2d1461008b578063fa54519f146100c1575b600080fd5b61006b60048036038101906100669190610668565b6100dd565b005b610075610158565b60405161008291906106d3565b60405180910390f35b6100a560048036038101906100a091906106ee565b61015e565b6040516100b8979695949392919061079a565b60405180910390f35b6100db60048036038101906100d69190610825565b6103c0565b005b600154821115610122576040517f08c379a00000000000000000000000000000000000000000000000000000000081526004016101199061095c565b60405180910390fd5b60008060008481526020019081526020016000209050818160030190816101499190610b88565b50428160060181905550505050565b60015481565b6000602052806000526040600020600091509050806000018054610181906109ab565b80601f01602080910402602001604051908101604052809291908181526020018280546101ad906109ab565b80156101fa5780601f106101cf576101008083540402835291602001916101fa565b820191906000526020600020905b8154815290600101906020018083116101dd57829003601f168201915b505050505090806001015490806002018054610215906109ab565b80601f0160208091040260200160405190810160405280929190818152602001828054610241906109ab565b801561028e5780601f106102635761010080835404028352916020019161028e565b820191906000526020600020905b81548152906001019060200180831161027157829003601f168201915b5050505050908060030180546102a3906109ab565b80601f01602080910402602001604051908101604052809291908181526020018280546102cf906109ab565b801561031c5780601f106102f15761010080835404028352916020019161031c565b820191906000526020600020905b8154815290600101906020018083116102ff57829003601f168201915b505050505090806004018054610331906109ab565b80601f016020809104026020016040519081016040528092919081815260200182805461035d906109ab565b80156103aa5780601f1061037f576101008083540402835291602001916103aa565b820191906000526020600020905b81548152906001019060200180831161038d57829003601f168201915b5050505050908060050154908060060154905087565b600160008154809291906103d390610c89565b91905055506040518060e0016040528086815260200185815260200184815260200183815260200182815260200142815260200142815250600080600154815260200190815260200160002060008201518160000190816104349190610b88565b506020820151816001015560408201518160020190816104549190610b88565b50606082015181600301908161046a9190610b88565b5060808201518160040190816104809190610b88565b5060a0820151816005015560c082015181600601559050507f10ac852923c1dd2caa5efd69c754524e7c6bc979c121e1d5f809f41610b76f0d6001546040516104c991906106d3565b60405180910390a15050505050565b6000604051905090565b600080fd5b600080fd5b6000819050919050565b6104ff816104ec565b811461050a57600080fd5b50565b60008135905061051c816104f6565b92915050565b600080fd5b600080fd5b6000601f19601f8301169050919050565b7f4e487b7100000000000000000000000000000000000000000000000000000000600052604160045260246000fd5b6105758261052c565b810181811067ffffffffffffffff821117156105945761059361053d565b5b80604052505050565b60006105a76104d8565b90506105b3828261056c565b919050565b600067ffffffffffffffff8211156105d3576105d261053d565b5b6105dc8261052c565b9050602081019050919050565b82818337600083830152505050565b600061060b610606846105b8565b61059d565b90508281526020810184848401111561062757610626610527565b5b6106328482856105e9565b509392505050565b600082601f83011261064f5761064e610522565b5b813561065f8482602086016105f8565b91505092915050565b6000806040838503121561067f5761067e6104e2565b5b600061068d8582860161050d565b925050602083013567ffffffffffffffff8111156106ae576106ad6104e7565b5b6106ba8582860161063a565b9150509250929050565b6106cd816104ec565b82525050565b60006020820190506106e860008301846106c4565b92915050565b600060208284031215610704576107036104e2565b5b60006107128482850161050d565b91505092915050565b600081519050919050565b600082825260208201905092915050565b60005b8381101561075557808201518184015260208101905061073a565b60008484015250505050565b600061076c8261071b565b6107768185610726565b9350610786818560208601610737565b61078f8161052c565b840191505092915050565b600060e08201905081810360008301526107b4818a610761565b90506107c360208301896106c4565b81810360408301526107d58188610761565b905081810360608301526107e98187610761565b905081810360808301526107fd8186610761565b905061080c60a08301856106c4565b61081960c08301846106c4565b98975050505050505050565b600080600080600060a08688031215610841576108406104e2565b5b600086013567ffffffffffffffff81111561085f5761085e6104e7565b5b61086b8882890161063a565b955050602061087c8882890161050d565b945050604086013567ffffffffffffffff81111561089d5761089c6104e7565b5b6108a98882890161063a565b935050606086013567ffffffffffffffff8111156108ca576108c96104e7565b5b6108d68882890161063a565b925050608086013567ffffffffffffffff8111156108f7576108f66104e7565b5b6109038882890161063a565b9150509295509295909350565b7f496e76616c696420464952204944000000000000000000000000000000000000600082015250565b6000610946600e83610726565b915061095182610910565b602082019050919050565b6000602082019050818103600083015261097581610939565b9050919050565b7f4e487b7100000000000000000000000000000000000000000000000000000000600052602260045260246000fd5b600060028204905060018216806109c357607f821691505b6020821081036109d6576109d561097c565b5b50919050565b60008190508160005260206000209050919050565b60006020601f8301049050919050565b600082821b905092915050565b600060088302610a3e7fffffffffffffffffffffffffffffffffffffffffffffffffffffffffffffffff82610a01565b610a488683610a01565b95508019841693508086168417925050509392505050565b6000819050919050565b6000610a85610a80610a7b846104ec565b610a60565b6104ec565b9050919050565b6000819050919050565b610a9f83610a6a565b610ab3610aab82610a8c565b848454610a0e565b825550505050565b600090565b610ac8610abb565b610ad3818484610a96565b505050565b5b81811015610af757610aec600082610ac0565b600181019050610ad9565b5050565b601f821115610b3c57610b0d816109dc565b610b16846109f1565b81016020851015610b25578190505b610b39610b31856109f1565b830182610ad8565b50505b505050565b600082821c905092915050565b6000610b5f60001984600802610b41565b1980831691505092915050565b6000610b788383610b4e565b9150826002028217905092915050565b610b918261071b565b67ffffffffffffffff811115610baa57610ba961053d565b5b610bb482546109ab565b610bbf828285610afb565b600060209050601f831160018114610bf25760008415610be0578287015190505b610bea8582610b6c565b865550610c52565b601f198416610c00866109dc565b60005b82811015610c2857848901518255600182019150602085019450602081019050610c03565b86831015610c455784890151610c41601f891682610b4e565b8355505b6001600288020188555050505b505050505050565b7f4e487b7100000000000000000000000000000000000000000000000000000000600052601160045260246000fd5b6000610c94826104ec565b91507fffffffffffffffffffffffffffffffffffffffffffffffffffffffffffffffff8203610cc657610cc5610c5a565b5b60018201905091905056fea264697066735822122042a5cde297b1224f51a5b891864260a70613e2c8bbe5c96d53782ed423e1815564736f6c63430008130033",
  "immutableReferences": {},
  "source": "// SPDX-License-Identifier: MIT\r\npragma solidity 0.8.19;\r\n\r\ncontract FirRecord {\r\n    struct Fir {\r\n        string offence;\r\n        uint256 offence_date;\r\n        string police_station;\r\n        string status;\r\n        string description;\r\n        uint256 created_at;\r\n        uint256 updated_at;\r\n    }\r\n\r\n    mapping(uint256 => Fir) public firRecords;\r\n    uint256 public firCount;\r\n\r\n    event FirCreated(uint256 fir_id);\r\n\r\n    function createFirRecord(\r\n        string memory _offence,\r\n        uint256 _offence_date,\r\n        string memory _police_station,\r\n        string memory _status,\r\n        string memory _description\r\n    ) public {\r\n        firCount++;\r\n        firRecords[firCount] = Fir({\r\n            offence: _offence,\r\n            offence_date: _offence_date,\r\n            police_station: _police_station,\r\n            status: _status,\r\n            description: _description,\r\n            created_at: block.timestamp,\r\n            updated_at: block.timestamp\r\n        });\r\n\r\n        emit FirCreated(firCount);\r\n    }\r\n\r\n    function updateFirStatus(uint256 _fir_id, string memory _status) public {\r\n        require(_fir_id <= firCount, \"Invalid FIR ID\");\r\n\r\n        Fir storage fir = firRecords[_fir_id];\r\n        fir.status = _status;\r\n        fir.updated_at = block.timestamp;\r\n    }\r\n}\r\n",
  "sourcePath": "C:\\Users\\Kirti Singh\\Desktop\\BConvict\\contracts\\fir.sol",
  "compiler": {
    "name": "solc",
    "version": "0.8.19+commit.7dd6d404.Emscripten.clang"
  },
  "schemaVersion": "3.4.13",
  "updatedAt": "2023-04-14T06:20:28.235Z",
  "devdoc": {
    "kind": "dev",
    "methods": {},
    "version": 1
  },
  "userdoc": {
    "kind": "user",
    "methods": {},
    "version": 1
  }
}